{
  "_format": "hh-sol-artifact-1",
  "contractName": "Escrow",
  "sourceName": "contracts/Escrow.sol",
  "abi": [
    {
      "anonymous": false,
      "inputs": [
        {
          "indexed": true,
          "internalType": "uint256",
          "name": "bookingId",
          "type": "uint256"
        },
        {
          "indexed": false,
          "internalType": "uint256",
          "name": "amount",
          "type": "uint256"
        }
      ],
      "name": "DepositMade",
      "type": "event"
    },
    {
      "anonymous": false,
      "inputs": [
        {
          "indexed": true,
          "internalType": "uint256",
          "name": "bookingId",
          "type": "uint256"
        },
        {
          "indexed": true,
          "internalType": "address",
          "name": "to",
          "type": "address"
        },
        {
          "indexed": false,
          "internalType": "uint256",
          "name": "amount",
          "type": "uint256"
        }
      ],
      "name": "FundsReleased",
      "type": "event"
    },
    {
      "inputs": [
        {
          "internalType": "uint256",
          "name": "",
          "type": "uint256"
        }
      ],
      "name": "bookingBalances",
      "outputs": [
        {
          "internalType": "uint256",
          "name": "",
          "type": "uint256"
        }
      ],
      "stateMutability": "view",
      "type": "function"
    },
    {
      "inputs": [
        {
          "internalType": "uint256",
          "name": "",
          "type": "uint256"
        }
      ],
      "name": "bookingOwners",
      "outputs": [
        {
          "internalType": "address",
          "name": "",
          "type": "address"
        }
      ],
      "stateMutability": "view",
      "type": "function"
    },
    {
      "inputs": [
        {
          "internalType": "uint256",
          "name": "bookingId",
          "type": "uint256"
        },
        {
          "internalType": "address",
          "name": "owner",
          "type": "address"
        }
      ],
      "name": "deposit",
      "outputs": [],
      "stateMutability": "payable",
      "type": "function"
    },
    {
      "inputs": [
        {
          "internalType": "uint256",
          "name": "bookingId",
          "type": "uint256"
        },
        {
          "internalType": "address payable",
          "name": "to",
          "type": "address"
        },
        {
          "internalType": "uint256",
          "name": "amount",
          "type": "uint256"
        }
      ],
      "name": "releaseFunds",
      "outputs": [],
      "stateMutability": "nonpayable",
      "type": "function"
    }
  ],
  "bytecode": "0x6080604052348015600f57600080fd5b506001600081905550610af2806100276000396000f3fe60806040526004361061003f5760003560e01c806319cc8480146100445780635745dee7146100815780636e553f65146100be57806374c95f4e146100da575b600080fd5b34801561005057600080fd5b5061006b60048036038101906100669190610570565b610103565b60405161007891906105ac565b60405180910390f35b34801561008d57600080fd5b506100a860048036038101906100a39190610570565b61011b565b6040516100b59190610608565b60405180910390f35b6100d860048036038101906100d3919061064f565b61014e565b005b3480156100e657600080fd5b5061010160048036038101906100fc91906106cd565b610259565b005b60016020528060005260406000206000915090505481565b60026020528060005260406000206000915054906101000a900473ffffffffffffffffffffffffffffffffffffffff1681565b6101566103e8565b60003411610199576040517f08c379a00000000000000000000000000000000000000000000000000000000081526004016101909061077d565b60405180910390fd5b346001600084815260200190815260200160002060008282546101bc91906107cc565b92505081905550806002600084815260200190815260200160002060006101000a81548173ffffffffffffffffffffffffffffffffffffffff021916908373ffffffffffffffffffffffffffffffffffffffff160217905550817f0793979a87d9a8a3698d9afc4736042bcc2a41b10151127638dcdef36ede4ce13460405161024591906105ac565b60405180910390a2610255610437565b5050565b6102616103e8565b6002600084815260200190815260200160002060009054906101000a900473ffffffffffffffffffffffffffffffffffffffff1673ffffffffffffffffffffffffffffffffffffffff163373ffffffffffffffffffffffffffffffffffffffff1614610302576040517f08c379a00000000000000000000000000000000000000000000000000000000081526004016102f99061084c565b60405180910390fd5b8060016000858152602001908152602001600020541015610358576040517f08c379a000000000000000000000000000000000000000000000000000000000815260040161034f906108b8565b60405180910390fd5b8060016000858152602001908152602001600020600082825461037b91906108d8565b9250508190555061038c8282610441565b8173ffffffffffffffffffffffffffffffffffffffff16837f6e3c6096795c8298a218b2cfb8bde42726ff7c9a3d27b4d3ba41ab7f74feb5fb836040516103d391906105ac565b60405180910390a36103e3610437565b505050565b60026000540361042d576040517f08c379a000000000000000000000000000000000000000000000000000000000815260040161042490610958565b60405180910390fd5b6002600081905550565b6001600081905550565b80471015610484576040517f08c379a000000000000000000000000000000000000000000000000000000000815260040161047b906109c4565b60405180910390fd5b60008273ffffffffffffffffffffffffffffffffffffffff16826040516104aa90610a15565b60006040518083038185875af1925050503d80600081146104e7576040519150601f19603f3d011682016040523d82523d6000602084013e6104ec565b606091505b5050905080610530576040517f08c379a000000000000000000000000000000000000000000000000000000000815260040161052790610a9c565b60405180910390fd5b505050565b600080fd5b6000819050919050565b61054d8161053a565b811461055857600080fd5b50565b60008135905061056a81610544565b92915050565b60006020828403121561058657610585610535565b5b60006105948482850161055b565b91505092915050565b6105a68161053a565b82525050565b60006020820190506105c1600083018461059d565b92915050565b600073ffffffffffffffffffffffffffffffffffffffff82169050919050565b60006105f2826105c7565b9050919050565b610602816105e7565b82525050565b600060208201905061061d60008301846105f9565b92915050565b61062c816105e7565b811461063757600080fd5b50565b60008135905061064981610623565b92915050565b6000806040838503121561066657610665610535565b5b60006106748582860161055b565b92505060206106858582860161063a565b9150509250929050565b600061069a826105c7565b9050919050565b6106aa8161068f565b81146106b557600080fd5b50565b6000813590506106c7816106a1565b92915050565b6000806000606084860312156106e6576106e5610535565b5b60006106f48682870161055b565b9350506020610705868287016106b8565b92505060406107168682870161055b565b9150509250925092565b600082825260208201905092915050565b7f7a65726f206465706f7369740000000000000000000000000000000000000000600082015250565b6000610767600c83610720565b915061077282610731565b602082019050919050565b600060208201905081810360008301526107968161075a565b9050919050565b7f4e487b7100000000000000000000000000000000000000000000000000000000600052601160045260246000fd5b60006107d78261053a565b91506107e28361053a565b92508282019050808211156107fa576107f961079d565b5b92915050565b7f6e6f74206f776e65720000000000000000000000000000000000000000000000600082015250565b6000610836600983610720565b915061084182610800565b602082019050919050565b6000602082019050818103600083015261086581610829565b9050919050565b7f696e73756666696369656e740000000000000000000000000000000000000000600082015250565b60006108a2600c83610720565b91506108ad8261086c565b602082019050919050565b600060208201905081810360008301526108d181610895565b9050919050565b60006108e38261053a565b91506108ee8361053a565b92508282039050818111156109065761090561079d565b5b92915050565b7f5265656e7472616e637947756172643a207265656e7472616e742063616c6c00600082015250565b6000610942601f83610720565b915061094d8261090c565b602082019050919050565b6000602082019050818103600083015261097181610935565b9050919050565b7f416464726573733a20696e73756666696369656e742062616c616e6365000000600082015250565b60006109ae601d83610720565b91506109b982610978565b602082019050919050565b600060208201905081810360008301526109dd816109a1565b9050919050565b600081905092915050565b50565b60006109ff6000836109e4565b9150610a0a826109ef565b600082019050919050565b6000610a20826109f2565b9150819050919050565b7f416464726573733a20756e61626c6520746f2073656e642076616c75652c207260008201527f6563697069656e74206d61792068617665207265766572746564000000000000602082015250565b6000610a86603a83610720565b9150610a9182610a2a565b604082019050919050565b60006020820190508181036000830152610ab581610a79565b905091905056fea26469706673582212206a35754c5f27fa92f20bc0e2e44efeb015eb3a9862b26f6367e299d77c594b5264736f6c634300081c0033",
  "linkReferences": {},
  "deployedLinkReferences": {}
}